:020000040000FA
:10000000031383168601880107308100831286015D
:1000100088013A204D2003138312031383161028FE
:100020009F131F149F141F119F1500308800FF306D
:10003000850083129F171F131D281F149F151F1261
:100040009F1236201F141F1525281F1925281E084A
:10005000B2006630A20032082202031C3028322887
:100060008811392888153928B10B34280A30B10095
:1000700008009028081088200130860085208820FC
:1000800038308600852088200F3086008520882023
:10009000063086008520882008000810023086007F
:1000A00085208820081488204830860085208A20F2
:1000B0006530860085208A206C30860085208A2065
:1000C0006C30860085208A206F30860085208A204B
:1000D0000030860085208A205730860085208A20BF
:1000E0006F30860085208A207230860085208A2025
:1000F0006C30860085208A206430860085208A2026
:1001000001308600852088200800881488100800A7
:1001100005308100013081000B1D8C280B11080077
:10012000031383120313831695289F131F149F1420
:100130001F119F1500308800FF30850083129F1724
:100140001F13A2281F149F111F129F12C1201F14DA
:100150001F15AA281F19AA281E08B200FA30320259
:10016000031CB328B5280811C4280815BC200811A1
:10017000BC20C428B10BBA28A00BBC28A10BBC28FA
:0A01800008000A30B10008000B2847
:04018A000034003409
:02400E00313F40
:00000001FF
