:020000040000FA
:100000000128031383128801031383165D28081047
:10001000552001308600522055203830860052206D
:1000200055200F3086005220552006308600522081
:100030005520080008100230860052205520081470
:1000400055204830860052205720653086005220C7
:1000500057206C308600522057206C30860052208A
:1000600057206F30860052205720003086005220E3
:10007000572057308600522057206F30860052207C
:10008000572072308600522057206C308600522054
:1000900057206430860052205720013086005220BD
:1000A00055200800881488100800053081000130B0
:1000B00081000B1D59280B1108009F131F149F145A
:1000C0001F119F1500308800FF30850083129F1795
:1000D0001F136A281F149F111F129F128C201F14B8
:1000E0001F1572281F1972281E08B200FA3032023A
:1000F000031C7B287E28003088008F28043088006D
:1001000087200030880087208F28B10B8528A00B1E
:100110008728A10B872808000A30B10008006A2848
:040120000034003473
:02400E00313F40
:00000001FF
